{
  "transactions": [
    {
      "hash": "0x54a5c4bb3a110dbbd679fd6a8d59de4faecb70a5c6571181bc07fc87213f1958",
      "transactionType": "CALL",
      "contractName": "OpynWETH9",
      "contractAddress": "0x083fd3D47eC8DC56b572321bc4dA8b26f7E82103",
      "function": "approve(address,uint256):(bool)",
      "arguments": [
        "0x931172BB95549d0f29e10ae2D079ABA3C63318B3",
        "7000000000000000000"
      ],
      "rpc": "https://goerli.infura.io/v3/9a1eacc6b18f436dab839c1713616fd1",
      "transaction": {
        "type": "0x02",
        "from": "0x157a8ab53cb0c122af11557b1f7649f481411be4",
        "to": "0x083fd3d47ec8dc56b572321bc4da8b26f7e82103",
        "gas": "0xf87c",
        "value": "0x0",
        "data": "0x095ea7b3000000000000000000000000931172bb95549d0f29e10ae2d079aba3c63318b30000000000000000000000000000000000000000000000006124fee993bc0000",
        "nonce": "0x31",
        "accessList": []
      },
      "additionalContracts": []
    },
    {
      "hash": "0x3d4f65979b3095d9b59f895ba08f8b37e1ba4e370c9ebb1b838d2dac5d5bccaa",
      "transactionType": "CALL",
      "contractName": null,
      "contractAddress": "0xEf5e087D827194732Bc1843351ccA80982E154eB",
      "function": null,
      "arguments": null,
      "rpc": "https://goerli.infura.io/v3/9a1eacc6b18f436dab839c1713616fd1",
      "transaction": {
        "type": "0x02",
        "from": "0x157a8ab53cb0c122af11557b1f7649f481411be4",
        "to": "0xef5e087d827194732bc1843351cca80982e154eb",
        "gas": "0x2c664",
        "value": "0x0",
        "data": "0xe2bbb15800000000000000000000000000000000000000000000000000000000000000000000000000000000000000000000000000000000000000006124fee993bc0000",
        "nonce": "0x32",
        "accessList": []
      },
      "additionalContracts": []
    },
    {
      "hash": "0x0bc23c4037f0d10b109c54f0c57be188168aac19f68c791f787d3cef5e9b576f",
      "transactionType": "CALL",
      "contractName": null,
      "contractAddress": "0x3EbC39b84B1F856fAFE9803A9e1Eae7Da016Da36",
      "function": null,
      "arguments": null,
      "rpc": "https://goerli.infura.io/v3/9a1eacc6b18f436dab839c1713616fd1",
      "transaction": {
        "type": "0x02",
        "from": "0x157a8ab53cb0c122af11557b1f7649f481411be4",
        "to": "0x3ebc39b84b1f856fafe9803a9e1eae7da016da36",
        "gas": "0x13ded",
        "value": "0x0",
        "data": "0x73f0b4370000000000000000000000000000000000000000000000000000000000000000000000000000000000000000083fd3d47ec8dc56b572321bc4da8b26f7e82103",
        "nonce": "0x33",
        "accessList": []
      },
      "additionalContracts": []
    }
  ],
  "receipts": [
    {
      "transactionHash": "0x54a5c4bb3a110dbbd679fd6a8d59de4faecb70a5c6571181bc07fc87213f1958",
      "transactionIndex": "0x0",
      "blockHash": "0xdfd7b3af7b779f4e8dd1a2756ae44c378a6ad27a3598ba685a7863831470084a",
      "blockNumber": "0x7ae52b",
      "from": "0x157A8ab53cb0c122AF11557b1F7649F481411be4",
      "to": "0x083fd3D47eC8DC56b572321bc4dA8b26f7E82103",
      "cumulativeGasUsed": "0xb3e7",
      "gasUsed": "0xb3e7",
      "contractAddress": null,
      "logs": [
        {
          "address": "0x083fd3D47eC8DC56b572321bc4dA8b26f7E82103",
          "topics": [
            "0x8c5be1e5ebec7d5bd14f71427d1e84f3dd0314c0f7b2291e5b200ac8c7c3b925",
            "0x000000000000000000000000157a8ab53cb0c122af11557b1f7649f481411be4",
            "0x000000000000000000000000931172bb95549d0f29e10ae2d079aba3c63318b3"
          ],
          "data": "0x0000000000000000000000000000000000000000000000006124fee993bc0000",
          "blockHash": "0xdfd7b3af7b779f4e8dd1a2756ae44c378a6ad27a3598ba685a7863831470084a",
          "blockNumber": "0x7ae52b",
          "transactionHash": "0x54a5c4bb3a110dbbd679fd6a8d59de4faecb70a5c6571181bc07fc87213f1958",
          "transactionIndex": "0x0",
          "logIndex": "0x0",
          "removed": false
        }
      ],
      "status": "0x1",
      "logsBloom": "0x00000000000000000000000000000000000000000002000000000000000000000000000000000000000000000000000000040000000000000000000000200000000000000000000000000000000000000000000000000000000000000000000000000000000000000000000000000000000000000000000000000000000000000000000000000000000000020000000000000000000080000002000000000100020000000000000000000000000000000000000000000080000000000000000000000000000000000000000000000000000000000000000000020000000000000010000000010000000000000000000000000000000000000000000000000000",
      "type": "0x2",
      "effectiveGasPrice": "0xb2d069db"
    },
    {
      "transactionHash": "0x3d4f65979b3095d9b59f895ba08f8b37e1ba4e370c9ebb1b838d2dac5d5bccaa",
      "transactionIndex": "0x1",
      "blockHash": "0xdfd7b3af7b779f4e8dd1a2756ae44c378a6ad27a3598ba685a7863831470084a",
      "blockNumber": "0x7ae52b",
      "from": "0x157A8ab53cb0c122AF11557b1F7649F481411be4",
      "to": "0xEf5e087D827194732Bc1843351ccA80982E154eB",
      "cumulativeGasUsed": "0x2b6a8",
      "gasUsed": "0x202c1",
      "contractAddress": null,
      "logs": [
        {
          "address": "0x931172BB95549d0f29e10ae2D079ABA3C63318B3",
          "topics": [
            "0xab5515522df06610b9fbcbbbd8416018226aca39364adcf5524751fcfef40ae5",
            "0x000000000000000000000000157a8ab53cb0c122af11557b1f7649f481411be4"
          ],
          "data": "0x0000000000000000000000000000000000000000000000006124fee993bc0000",
          "blockHash": "0xdfd7b3af7b779f4e8dd1a2756ae44c378a6ad27a3598ba685a7863831470084a",
          "blockNumber": "0x7ae52b",
          "transactionHash": "0x3d4f65979b3095d9b59f895ba08f8b37e1ba4e370c9ebb1b838d2dac5d5bccaa",
          "transactionIndex": "0x1",
          "logIndex": "0x1",
          "removed": false
        },
        {
          "address": "0x083fd3D47eC8DC56b572321bc4dA8b26f7E82103",
          "topics": [
            "0xddf252ad1be2c89b69c2b068fc378daa952ba7f163c4a11628f55a4df523b3ef",
            "0x000000000000000000000000157a8ab53cb0c122af11557b1f7649f481411be4",
            "0x000000000000000000000000931172bb95549d0f29e10ae2d079aba3c63318b3"
          ],
          "data": "0x0000000000000000000000000000000000000000000000006124fee993bc0000",
          "blockHash": "0xdfd7b3af7b779f4e8dd1a2756ae44c378a6ad27a3598ba685a7863831470084a",
          "blockNumber": "0x7ae52b",
          "transactionHash": "0x3d4f65979b3095d9b59f895ba08f8b37e1ba4e370c9ebb1b838d2dac5d5bccaa",
          "transactionIndex": "0x1",
          "logIndex": "0x2",
          "removed": false
        },
        {
          "address": "0x931172BB95549d0f29e10ae2D079ABA3C63318B3",
          "topics": [
            "0x5548c837ab068cf56a2c2479df0882a4922fd203edb7517321831d95078c5f62",
            "0x000000000000000000000000083fd3d47ec8dc56b572321bc4da8b26f7e82103",
            "0x000000000000000000000000157a8ab53cb0c122af11557b1f7649f481411be4"
          ],
          "data": "0x0000000000000000000000000000000000000000000000006124fee993bc0000",
          "blockHash": "0xdfd7b3af7b779f4e8dd1a2756ae44c378a6ad27a3598ba685a7863831470084a",
          "blockNumber": "0x7ae52b",
          "transactionHash": "0x3d4f65979b3095d9b59f895ba08f8b37e1ba4e370c9ebb1b838d2dac5d5bccaa",
          "transactionIndex": "0x1",
          "logIndex": "0x3",
          "removed": false
        },
        {
          "address": "0xEf5e087D827194732Bc1843351ccA80982E154eB",
          "topics": [
            "0xddf252ad1be2c89b69c2b068fc378daa952ba7f163c4a11628f55a4df523b3ef",
            "0x0000000000000000000000000000000000000000000000000000000000000000",
            "0x000000000000000000000000157a8ab53cb0c122af11557b1f7649f481411be4"
          ],
          "data": "0x0000000000000000000000000000000000000000000000006124fee993bc0000",
          "blockHash": "0xdfd7b3af7b779f4e8dd1a2756ae44c378a6ad27a3598ba685a7863831470084a",
          "blockNumber": "0x7ae52b",
          "transactionHash": "0x3d4f65979b3095d9b59f895ba08f8b37e1ba4e370c9ebb1b838d2dac5d5bccaa",
          "transactionIndex": "0x1",
          "logIndex": "0x4",
          "removed": false
        },
        {
          "address": "0x931172BB95549d0f29e10ae2D079ABA3C63318B3",
          "topics": [
            "0x2f2d732e1a7a15fe7a2e51d3482efe83ff791579cebc5e3cd12cd2064374bc7f",
            "0x000000000000000000000000083fd3d47ec8dc56b572321bc4da8b26f7e82103"
          ],
          "data": "0x0000000000000000000000000000000000000000000000006124fee993cb4240000000000000000000000000000000000000000000000000000000000000000000000000000000000000000000000000000000000000000000000000000f42400000000000000000000000000000000000000000000000006124fee993bc00000000000000000000000000000000000000000000033b2e3c9fd0803ce800000000000000000000000000000000000000000000000000000000000000000000000000000000000000000000000000000000000000000000000000000063888f78",
          "blockHash": "0xdfd7b3af7b779f4e8dd1a2756ae44c378a6ad27a3598ba685a7863831470084a",
          "blockNumber": "0x7ae52b",
          "transactionHash": "0x3d4f65979b3095d9b59f895ba08f8b37e1ba4e370c9ebb1b838d2dac5d5bccaa",
          "transactionIndex": "0x1",
          "logIndex": "0x5",
          "removed": false
        }
      ],
      "status": "0x1",
      "logsBloom": "0x000000000000000000000000100000000000000200020000000000000000000000000000000000000000000000000000000400000000020000000000400000000000000080080000000000080200000000000200000000000000000000000000000000000600000000000000000008000000000000000000008000100000000000000080000000000000000200000000000000000040800000020000000001000000000000000000000000000000000200000000000000c0000000000000000000000002000000000000000000000000000000000100008000020000200020000000000000010000000000000000000000000000000000000400000000000000",
      "type": "0x2",
      "effectiveGasPrice": "0xb2d069db"
    },
    {
      "transactionHash": "0x0bc23c4037f0d10b109c54f0c57be188168aac19f68c791f787d3cef5e9b576f",
      "transactionIndex": "0x2",
      "blockHash": "0xdfd7b3af7b779f4e8dd1a2756ae44c378a6ad27a3598ba685a7863831470084a",
      "blockNumber": "0x7ae52b",
      "from": "0x157A8ab53cb0c122AF11557b1F7649F481411be4",
      "to": "0x3EbC39b84B1F856fAFE9803A9e1Eae7Da016Da36",
      "cumulativeGasUsed": "0x39cd5",
      "gasUsed": "0xe62d",
      "contractAddress": null,
      "logs": [
        {
          "address": "0x931172BB95549d0f29e10ae2D079ABA3C63318B3",
          "topics": [
            "0x1c0971b8e0f7bb4e90bdbd87cfe682c36c383e2fc3dc4716ecc02771186293cc",
            "0x000000000000000000000000083fd3d47ec8dc56b572321bc4da8b26f7e82103",
            "0x000000000000000000000000157a8ab53cb0c122af11557b1f7649f481411be4"
          ],
          "data": "0x",
          "blockHash": "0xdfd7b3af7b779f4e8dd1a2756ae44c378a6ad27a3598ba685a7863831470084a",
          "blockNumber": "0x7ae52b",
          "transactionHash": "0x0bc23c4037f0d10b109c54f0c57be188168aac19f68c791f787d3cef5e9b576f",
          "transactionIndex": "0x2",
          "logIndex": "0x6",
          "removed": false
        }
      ],
      "status": "0x1",
      "logsBloom": "0x00000000000000000000000000000000000000000002000000000000000000000000000000000000000000000000000000000000000000000000000000000000000000008000000000000000020000000000020000000000000000000000000000000000000000000000000000000000000000000000000000000000000000000000000000000000000000000000000000000000004000000002000000000100000000000000000000000000000000000000000000000000000000000000000000000000000000000000000000000000000000000800008000000000000000000000000000000000000040000000000000000000002000000400000000000000",
      "type": "0x2",
      "effectiveGasPrice": "0xb2d069db"
    }
  ],
  "libraries": [],
  "pending": [],
  "path": "/Users/haythem96/Projects/DeFi/Options/Opyn/squeeth-monorepo/packages/bull-vault/broadcast/GoerliAddWethLiquidityEuler.s.sol/5/run-latest.json",
  "returns": {},
  "timestamp": 1669894009,
  "chain": 5,
  "multi": false,
  "commit": "6ce3820c"
}