{
  "transactions": [
    {
      "hash": "0x7e28453cb19e54fb732ca1257a76fa85de2acff9f93f4ba523f712c90c104209",
      "transactionType": "CALL",
      "contractName": "MockErc20",
      "contractAddress": "0x306bf03b689f7d7e5e9D3aAC87a068F16AFF9482",
      "function": "approve(address,uint256):(bool)",
      "arguments": [
        "0x931172BB95549d0f29e10ae2D079ABA3C63318B3",
        "100000000000000"
      ],
      "rpc": "https://goerli.infura.io/v3/9a1eacc6b18f436dab839c1713616fd1",
      "transaction": {
        "type": "0x02",
        "from": "0x157a8ab53cb0c122af11557b1f7649f481411be4",
        "to": "0x306bf03b689f7d7e5e9d3aac87a068f16aff9482",
        "gas": "0xf92c",
        "value": "0x0",
        "data": "0x095ea7b3000000000000000000000000931172bb95549d0f29e10ae2d079aba3c63318b300000000000000000000000000000000000000000000000000005af3107a4000",
        "nonce": "0x35",
        "accessList": []
      },
      "additionalContracts": []
    },
    {
      "hash": "0x750363d67428a22dfead478e29498f36f198e21569037872171f14e009602c25",
      "transactionType": "CALL",
      "contractName": null,
      "contractAddress": "0x19EB4AC774bB84Fe725cffB9F71D79ab2fB4E12a",
      "function": null,
      "arguments": null,
      "rpc": "https://goerli.infura.io/v3/9a1eacc6b18f436dab839c1713616fd1",
      "transaction": {
        "type": "0x02",
        "from": "0x157a8ab53cb0c122af11557b1f7649f481411be4",
        "to": "0x19eb4ac774bb84fe725cffb9f71d79ab2fb4e12a",
        "gas": "0x2d313",
        "value": "0x0",
        "data": "0xe2bbb158000000000000000000000000000000000000000000000000000000000000000000000000000000000000000000000000000000000000000000005af3107a4000",
        "nonce": "0x36",
        "accessList": []
      },
      "additionalContracts": []
    },
    {
      "hash": "0x73914d81d37e56ccfe3b1df8b68f9c506f9cd3a80c71de7ecce11c84a547c66d",
      "transactionType": "CALL",
      "contractName": null,
      "contractAddress": "0x3EbC39b84B1F856fAFE9803A9e1Eae7Da016Da36",
      "function": null,
      "arguments": null,
      "rpc": "https://goerli.infura.io/v3/9a1eacc6b18f436dab839c1713616fd1",
      "transaction": {
        "type": "0x02",
        "from": "0x157a8ab53cb0c122af11557b1f7649f481411be4",
        "to": "0x3ebc39b84b1f856fafe9803a9e1eae7da016da36",
        "gas": "0x16d5b",
        "value": "0x0",
        "data": "0x73f0b4370000000000000000000000000000000000000000000000000000000000000000000000000000000000000000306bf03b689f7d7e5e9d3aac87a068f16aff9482",
        "nonce": "0x37",
        "accessList": []
      },
      "additionalContracts": []
    }
  ],
  "receipts": [
    {
      "transactionHash": "0x7e28453cb19e54fb732ca1257a76fa85de2acff9f93f4ba523f712c90c104209",
      "transactionIndex": "0x5",
      "blockHash": "0x307b3c3694b5fcbfee68be9d9bef9f53d5876a240af153162403b1e1f762a3db",
      "blockNumber": "0x7ae58a",
      "from": "0x157A8ab53cb0c122AF11557b1F7649F481411be4",
      "to": "0x306bf03b689f7d7e5e9D3aAC87a068F16AFF9482",
      "cumulativeGasUsed": "0x6a67d",
      "gasUsed": "0xb466",
      "contractAddress": null,
      "logs": [
        {
          "address": "0x306bf03b689f7d7e5e9D3aAC87a068F16AFF9482",
          "topics": [
            "0x8c5be1e5ebec7d5bd14f71427d1e84f3dd0314c0f7b2291e5b200ac8c7c3b925",
            "0x000000000000000000000000157a8ab53cb0c122af11557b1f7649f481411be4",
            "0x000000000000000000000000931172bb95549d0f29e10ae2d079aba3c63318b3"
          ],
          "data": "0x00000000000000000000000000000000000000000000000000005af3107a4000",
          "blockHash": "0x307b3c3694b5fcbfee68be9d9bef9f53d5876a240af153162403b1e1f762a3db",
          "blockNumber": "0x7ae58a",
          "transactionHash": "0x7e28453cb19e54fb732ca1257a76fa85de2acff9f93f4ba523f712c90c104209",
          "transactionIndex": "0x5",
          "logIndex": "0xd",
          "removed": false
        }
      ],
      "status": "0x1",
      "logsBloom": "0x00000000000000000000000000000000000000000002000000000000000000000000000000000000000000000000000000000000000000000000000000200000000000000000000000000000000000000000000000000000000000000000000000000000000000000000000000000000000000000000000000000000000000000000000000000000000000000000000000000000000080000002000000000100020000000000000000000000000000000000000000000000001000000000000000000000000000000000000002000000000000000000000000020000000000000010000000010000000000000000000800000000000000000000000000000000",
      "type": "0x2",
      "effectiveGasPrice": "0xb2d06065"
    },
    {
      "transactionHash": "0x750363d67428a22dfead478e29498f36f198e21569037872171f14e009602c25",
      "transactionIndex": "0x6",
      "blockHash": "0x307b3c3694b5fcbfee68be9d9bef9f53d5876a240af153162403b1e1f762a3db",
      "blockNumber": "0x7ae58a",
      "from": "0x157A8ab53cb0c122AF11557b1F7649F481411be4",
      "to": "0x19EB4AC774bB84Fe725cffB9F71D79ab2fB4E12a",
      "cumulativeGasUsed": "0x8b2de",
      "gasUsed": "0x20c61",
      "contractAddress": null,
      "logs": [
        {
          "address": "0x931172BB95549d0f29e10ae2D079ABA3C63318B3",
          "topics": [
            "0xab5515522df06610b9fbcbbbd8416018226aca39364adcf5524751fcfef40ae5",
            "0x000000000000000000000000157a8ab53cb0c122af11557b1f7649f481411be4"
          ],
          "data": "0x00000000000000000000000000000000000000000000000000005af3107a4000",
          "blockHash": "0x307b3c3694b5fcbfee68be9d9bef9f53d5876a240af153162403b1e1f762a3db",
          "blockNumber": "0x7ae58a",
          "transactionHash": "0x750363d67428a22dfead478e29498f36f198e21569037872171f14e009602c25",
          "transactionIndex": "0x6",
          "logIndex": "0xe",
          "removed": false
        },
        {
          "address": "0x306bf03b689f7d7e5e9D3aAC87a068F16AFF9482",
          "topics": [
            "0xddf252ad1be2c89b69c2b068fc378daa952ba7f163c4a11628f55a4df523b3ef",
            "0x000000000000000000000000157a8ab53cb0c122af11557b1f7649f481411be4",
            "0x000000000000000000000000931172bb95549d0f29e10ae2d079aba3c63318b3"
          ],
          "data": "0x00000000000000000000000000000000000000000000000000005af3107a4000",
          "blockHash": "0x307b3c3694b5fcbfee68be9d9bef9f53d5876a240af153162403b1e1f762a3db",
          "blockNumber": "0x7ae58a",
          "transactionHash": "0x750363d67428a22dfead478e29498f36f198e21569037872171f14e009602c25",
          "transactionIndex": "0x6",
          "logIndex": "0xf",
          "removed": false
        },
        {
          "address": "0x306bf03b689f7d7e5e9D3aAC87a068F16AFF9482",
          "topics": [
            "0x8c5be1e5ebec7d5bd14f71427d1e84f3dd0314c0f7b2291e5b200ac8c7c3b925",
            "0x000000000000000000000000157a8ab53cb0c122af11557b1f7649f481411be4",
            "0x000000000000000000000000931172bb95549d0f29e10ae2d079aba3c63318b3"
          ],
          "data": "0x0000000000000000000000000000000000000000000000000000000000000000",
          "blockHash": "0x307b3c3694b5fcbfee68be9d9bef9f53d5876a240af153162403b1e1f762a3db",
          "blockNumber": "0x7ae58a",
          "transactionHash": "0x750363d67428a22dfead478e29498f36f198e21569037872171f14e009602c25",
          "transactionIndex": "0x6",
          "logIndex": "0x10",
          "removed": false
        },
        {
          "address": "0x931172BB95549d0f29e10ae2D079ABA3C63318B3",
          "topics": [
            "0x5548c837ab068cf56a2c2479df0882a4922fd203edb7517321831d95078c5f62",
            "0x000000000000000000000000306bf03b689f7d7e5e9d3aac87a068f16aff9482",
            "0x000000000000000000000000157a8ab53cb0c122af11557b1f7649f481411be4"
          ],
          "data": "0x00000000000000000000000000000000000000000052b7d2dcc80cd2e4000000",
          "blockHash": "0x307b3c3694b5fcbfee68be9d9bef9f53d5876a240af153162403b1e1f762a3db",
          "blockNumber": "0x7ae58a",
          "transactionHash": "0x750363d67428a22dfead478e29498f36f198e21569037872171f14e009602c25",
          "transactionIndex": "0x6",
          "logIndex": "0x11",
          "removed": false
        },
        {
          "address": "0x19EB4AC774bB84Fe725cffB9F71D79ab2fB4E12a",
          "topics": [
            "0xddf252ad1be2c89b69c2b068fc378daa952ba7f163c4a11628f55a4df523b3ef",
            "0x0000000000000000000000000000000000000000000000000000000000000000",
            "0x000000000000000000000000157a8ab53cb0c122af11557b1f7649f481411be4"
          ],
          "data": "0x00000000000000000000000000000000000000000052b7d2dcc80cd2e4000000",
          "blockHash": "0x307b3c3694b5fcbfee68be9d9bef9f53d5876a240af153162403b1e1f762a3db",
          "blockNumber": "0x7ae58a",
          "transactionHash": "0x750363d67428a22dfead478e29498f36f198e21569037872171f14e009602c25",
          "transactionIndex": "0x6",
          "logIndex": "0x12",
          "removed": false
        },
        {
          "address": "0x931172BB95549d0f29e10ae2D079ABA3C63318B3",
          "topics": [
            "0x2f2d732e1a7a15fe7a2e51d3482efe83ff791579cebc5e3cd12cd2064374bc7f",
            "0x000000000000000000000000306bf03b689f7d7e5e9d3aac87a068f16aff9482"
          ],
          "data": "0x00000000000000000000000000000000000000000052b7d2dcc80cd2e40f4240000000000000000000000000000000000000000000000000000000000000000000000000000000000000000000000000000000000000000000000000000f424000000000000000000000000000000000000000000052b7d2dcc80cd2e40000000000000000000000000000000000000000000000033b2e3c9fd0803ce8000000000000000000000000000000000000000000000000000000000000000000000000000000000000000000000000000000000000000000000000000000638894f4",
          "blockHash": "0x307b3c3694b5fcbfee68be9d9bef9f53d5876a240af153162403b1e1f762a3db",
          "blockNumber": "0x7ae58a",
          "transactionHash": "0x750363d67428a22dfead478e29498f36f198e21569037872171f14e009602c25",
          "transactionIndex": "0x6",
          "logIndex": "0x13",
          "removed": false
        }
      ],
      "status": "0x1",
      "logsBloom": "0x00100000000000000000000000000000000000020002000000000000000000000000000000000000000000000000000000000000000002000000000040200000001000000008000000000008000000000000020000000000000000000000000000000000060000000000000000000800000000000000000000000010000002000000008000000000000000000000000000000000004080000002000000000100020000000000000001000000000000000000000000000040001000000000000000000002000000000000000002000000000000000100000000020000200020000010000000010000000000000000000a00000000000000000400000400000000",
      "type": "0x2",
      "effectiveGasPrice": "0xb2d06065"
    },
    {
      "transactionHash": "0x73914d81d37e56ccfe3b1df8b68f9c506f9cd3a80c71de7ecce11c84a547c66d",
      "transactionIndex": "0x7",
      "blockHash": "0x307b3c3694b5fcbfee68be9d9bef9f53d5876a240af153162403b1e1f762a3db",
      "blockNumber": "0x7ae58a",
      "from": "0x157A8ab53cb0c122AF11557b1F7649F481411be4",
      "to": "0x3EbC39b84B1F856fAFE9803A9e1Eae7Da016Da36",
      "cumulativeGasUsed": "0x9acaf",
      "gasUsed": "0xf9d1",
      "contractAddress": null,
      "logs": [
        {
          "address": "0x931172BB95549d0f29e10ae2D079ABA3C63318B3",
          "topics": [
            "0x1c0971b8e0f7bb4e90bdbd87cfe682c36c383e2fc3dc4716ecc02771186293cc",
            "0x000000000000000000000000306bf03b689f7d7e5e9d3aac87a068f16aff9482",
            "0x000000000000000000000000157a8ab53cb0c122af11557b1f7649f481411be4"
          ],
          "data": "0x",
          "blockHash": "0x307b3c3694b5fcbfee68be9d9bef9f53d5876a240af153162403b1e1f762a3db",
          "blockNumber": "0x7ae58a",
          "transactionHash": "0x73914d81d37e56ccfe3b1df8b68f9c506f9cd3a80c71de7ecce11c84a547c66d",
          "transactionIndex": "0x7",
          "logIndex": "0x14",
          "removed": false
        }
      ],
      "status": "0x1",
      "logsBloom": "0x00000000000000000000000000000000000000000002000000000000000000000000000000000000000000000000000000000000000000000000000000000000000000000000000000000000000000000000020000000000000000000000000000000000000000000000000000000000000000000000000000000000000002000000000000000000000000000000000000000000004000000002000000000100000000000000000000000000000000000000000000000000000000000000000000000000000000000000000000000000000000000800000000000000000000000000000000000000000040000000000200000000002000000400000400000000",
      "type": "0x2",
      "effectiveGasPrice": "0xb2d06065"
    }
  ],
  "libraries": [],
  "pending": [],
  "path": "/Users/haythem96/Projects/DeFi/Options/Opyn/squeeth-monorepo/packages/bull-vault/broadcast/GoerliAddUsdcLiquidityEuler.s.sol/5/run-latest.json",
  "returns": {},
  "timestamp": 1669895418,
  "chain": 5,
  "multi": false,
  "commit": "6ce3820c"
}